:100000000C942A000C94AF0A0C94E20A0C94150B81
:100010000C9447000C9447000C9447000C94470044
:100020000C9447000C94710F0C942E080C94FB0751
:100030000C9447000C9447000C9447000C94470024
:100040000C9447000C9447000C9447000C94470014
:100050000C94470011241FBECFE5D8E0DEBFCDBF12
:1000600011E0A0E6B0E0E0EBF0E302C005900D92F5
:10007000A238B107D9F711E0A2E8B1E001C01D92A2
:10008000A139B107E1F70E9417170C9456180C9488
:100090000000EF92FF920F931F937B018C0120E0F1
:1000A00030E040E05FE40E94F50388238CF0C80153
:1000B000B70120E030E040E05FE40E94C1010E940F
:1000C00055049B01AC01205030404040504806C0D0
:1000D000C801B7010E9455049B01AC01B901CA01D6
:1000E0001F910F91FF90EF900895A0E0B0E0EBE733
:1000F000F0E00C941F18DC012B01FA019C91923066
:1001000008F439C1EB018881823008F433C194309E
:1001100069F4843009F02FC111969C91119789815F
:10012000981709F428C1A6E7B0E025C1843009F486
:1001300021C18230A9F4923009F01DC19A01AD01AC
:1001400088E0EA010990AE01E90109929E0181501F
:10015000C1F7E201898111969C918923818308C1AD
:10016000923009F407C112962D903C901397EB0141
:100170008A819B811496AD90BD90CD90DC901797AD
:10018000EC80FD800E811F819101281B390BB90184
:1001900037FF04C066277727621B730B6032710537
:1001A0000CF061C0121613066CF537014801062EDB
:1001B00004C096948794779467940A94D2F721E0C8
:1001C00030E040E050E004C0220F331F441F551FB1
:1001D0006A95D2F721503040404050402E213F21B7
:1001E00040235123211531054105510521F021E01E
:1001F00030E040E050E079018A01E628F72808293C
:1002000019293CC0232BD1F1260E371E350146019A
:10021000062E04C096948794779467940A94D2F734
:1002200021E030E040E050E004C0220F331F441FC3
:10023000551F6A95D2F721503040404050402A2146
:100240003B214C215D21211531054105510521F04E
:1002500021E030E040E050E059016A01A628B728CB
:10026000C828D9280BC0821593052CF01C01AA249C
:10027000BB24650103C0EE24FF24870111969C91E5
:10028000D20111968C91981709F445C0992339F041
:10029000A80197012A193B094C095D0906C0A6016E
:1002A00095012E193F09400B510B57FD08C01182D3
:1002B0003382228224833583468357831DC081E0A5
:1002C00081833382228288279927DC01821B930B4A
:1002D000A40BB50B84839583A683B7830DC0220F2F
:1002E000331F441F551F24833583468357838281E0
:1002F000938101979383828324813581468157813D
:10030000DA01C9010197A109B1098F5F9F4FAF4F72
:10031000BF4328F30BC0918333822282EA0CFB1C7B
:100320000C1D1D1DE482F5820683178383E0808304
:10033000248135814681578157FF1AC0C901AA27F8
:1003400097FDA095BA2F81709070A070B0705695EF
:10035000479537952795822B932BA42BB52B848318
:100360009583A683B7838281938101969383828349
:10037000DF0101C0D201CD01CDB7DEB7E2E10C94BF
:100380003B18A0E2B0E0E7ECF1E00C942B18698395
:100390007A838B839C832D833E834F835887E9E048
:1003A000EE2EF12CEC0EFD1ECE010196B7010E943F
:1003B00046068E010F5E1F4FCE010596B8010E94C2
:1003C00046068A8991E089278A8BC701B801AE0168
:1003D000475E5F4F0E9475000E947105A096E6E09F
:1003E0000C944718A0E2B0E0E8EFF1E00C942B1871
:1003F00069837A838B839C832D833E834F835887C5
:10040000F9E0EF2EF12CEC0EFD1ECE010196B701A6
:100410000E9446068E010F5E1F4FCE010596B80161
:100420000E944606C701B801AE01475E5F4F0E94B9
:1004300075000E947105A096E6E00C944718A0E2B2
:10044000B0E0E5E2F2E00C941F1869837A838B83B5
:100450009C832D833E834F835887CE010196BE0136
:10046000675F7F4F0E944606CE010596BE016F5E14
:100470007F4F0E9446069985923088F089898230A4
:10048000C8F0943019F4823051F404C0843029F457
:10049000923081F486E790E0C6C0923049F420E0C3
:1004A0009A858A89981321E02A87CE010996BBC0D4
:1004B000823049F420E09A858A89981321E02A8BBA
:1004C000CE014196B0C02D843E844F8458886D88FB
:1004D0007E888F88988CEE24FF248701AA24BB2471
:1004E000650140E050E060E070E0E0E0F0E0C10174
:1004F00081709070892BE9F0E60CF71C081D191D1E
:100500009A01AB012A0D3B1D4C1D5D1D80E090E062
:10051000A0E0B0E0E614F7040805190520F481E036
:1005200090E0A0E0B0E0BA01A901480F591F6A1F8E
:100530007B1FAA0CBB1CCC1CDD1C97FE08C081E0F5
:1005400090E0A0E0B0E0A82AB92ACA2ADB2A3196B6
:10055000E032F10549F0660C771C881C991C569412
:10056000479437942794C3CFFA85EA892B893C892D
:100570008B859C85280F391F2E5F3F4F17C0CA01FE
:1005800081709070892B61F016950795F794E79428
:1005900080E090E0A0E0B0E8E82AF92A0A2B1B2BC3
:1005A00076956795579547952F5F3F4F77FDE7CF36
:1005B0000CC0440F551F661F771F17FD4160EE0CDE
:1005C000FF1C001F111F21503040403090E05907A0
:1005D00090E0690790E4790760F32B8F3C8FDB0193
:1005E000CA018F779070A070B07080349105A1051A
:1005F000B10561F447FD0AC0E114F10401051105DC
:1006000029F0405C5F4F6F4F7F4F40781A8EFE1786
:1006100011F081E08A8F4D8F5E8F6F8F78A383E01A
:10062000898FCE0149960E947105A096E2E10C9453
:100630003B18A8E1B0E0EFE1F3E00C9427186983E0
:100640007A838B839C832D833E834F835887B9E0C5
:10065000EB2EF12CEC0EFD1ECE010196B7010E948F
:1006600046068E010F5E1F4FCE010596B8010E940F
:1006700046062985223008F47EC03989323010F4CC
:10068000B8017CC08A859A8989278A87243011F02D
:10069000223031F4231709F06EC066E770E06EC0B7
:1006A000343039F41D861E861F86188A1C861B86E8
:1006B00004C0323021F484E08987B7015FC02B8504
:1006C0003C858B899C89281B390B3C872B87ED84C3
:1006D000FE840F851889AD88BE88CF88D88CEA142F
:1006E000FB040C051D0540F4EE0CFF1C001F111F40
:1006F000215030403C872B8720E030E040E050E044
:1007000080E090E0A0E0B0E460E070E0EA14FB0478
:100710000C051D0540F0282B392B4A2B5B2BEA18C2
:10072000FB080C091D09B695A79597958795EE0CC2
:10073000FF1C001F111F6F5F7F4F6F31710531F775
:10074000DA01C9018F779070A070B0708034910584
:10075000A105B10561F427FD0AC0E114F10401050A
:10076000110529F0205C3F4F4F4F5F4F20782D87B8
:100770003E874F87588BBE01675F7F4FCB010E943A
:1007800071056896EAE00C944318A8E1B0E0EBEC40
:10079000F3E00C942B1869837A838B839C832D83DD
:1007A0003E834F83588789E0E82EF12CEC0EFD1E26
:1007B000CE010196B7010E9446068E010F5E1F4FC3
:1007C000CE010596B8010E9446068985823040F028
:1007D0008989823028F0C701B8010E94BE0601C095
:1007E0008FEF6896E6E00C944718A8E1B0E0EBEFD5
:1007F000F3E00C942B1869837A838B839C832D837D
:100800003E834F83588789E0E82EF12CEC0EFD1EC5
:10081000CE010196B7010E9446068E010F5E1F4F62
:10082000CE010596B8010E9446068985823040F0C7
:100830008989823028F0C701B8010E94BE0601C034
:100840008FEF6896E6E00C944718A8E1B0E0EBE281
:10085000F4E00C942B1869837A838B839C832D831B
:100860003E834F83588789E0E82EF12CEC0EFD1E65
:10087000CE010196B7010E9446068E010F5E1F4F02
:10088000CE010596B8010E9446068985823040F067
:100890008989823028F0C701B8010E94BE0601C0D4
:1008A00081E06896E6E00C944718ACE0B0E0EBE538
:1008B000F4E00C942F1869837A838B839C83CE0198
:1008C0000196BE016B5F7F4F0E9446068D8182308C
:1008D00061F1823050F1843021F48E81882351F10E
:1008E0002EC02F81388537FD20C06E812F31310514
:1008F0001CF06623F9F023C08EE190E0821B930B7D
:1009000029853A854B855C8504C056954795379572
:1009100027958A95D2F76623B1F05095409530958A
:1009200021953F4F4F4F5F4F0EC020E030E040E039
:1009300050E009C02FEF3FEF4FEF5FE704C020E02A
:1009400030E040E050E8B901CA012C96E2E00C9496
:100950004B18A8E0B0E0EFEAF4E00C9427187B0114
:100960008C01611571058105910519F482E0898377
:1009700060C083E089838EE1C82ED12CDC82CB82DB
:10098000ED82FE820F831887C801B7010E942205FD
:10099000FC013197F7FF3BC0222733272E1B3F0B6B
:1009A00057016801022E04C0D694C794B794A79447
:1009B0000A94D2F740E050E060E070E081E090E01F
:1009C000A0E0B0E004C0880F991FAA1FBB1F2A95A2
:1009D000D2F70197A109B1098E219F21A023B1234C
:1009E0000097A105B10521F041E050E060E070E022
:1009F0004A295B296C297D294D835E836F83788723
:100A00008EE190E08E1B9F0B9C838B8312C03097EE
:100A100081F00E2E04C0EE0CFF1C001F111F0A9463
:100A2000D2F7ED82FE820F831887CE1ADF0ADC82AE
:100A3000CB821A82CE0101960E9471052896EAE0C7
:100A40000C944318EF92FF920F931F937B018C013C
:100A500080E0E81680E0F80681E0080780E01807EB
:100A600088F48FEFE816F1040105110531F028F044
:100A700088E090E0A0E0B0E017C080E090E0A0E067
:100A8000B0E012C080E0E81680E0F80680E00807D9
:100A900081E0180728F088E190E0A0E0B0E004C011
:100AA00080E190E0A0E0B0E020E230E040E050E003
:100AB000281B390B4A0B5B0B04C016950795F7945E
:100AC000E7948A95D2F7F701E258FF4F8081281BFF
:100AD000310941095109C9011F910F91FF90EF9010
:100AE0000895DF92EF92FF920F931F93FC01E48031
:100AF000F58006811781D1808081823048F480E0C2
:100B000090E0A0E1B0E0E82AF92A0A2B1B2BA5C04F
:100B1000843009F49FC0823021F4EE24FF24870141
:100B200005C0E114F1040105110519F4E0E0F0E05D
:100B300096C0628173819FEF623879070CF05BC0C9
:100B400022E83FEF261B370B2A3131052CF020E03D
:100B500030E040E050E02AC0B801A701022E04C0F6
:100B600076956795579547950A94D2F781E090E07E
:100B7000A0E0B0E004C0880F991FAA1FBB1F2A95F0
:100B8000D2F70197A109B1098E219F21A023B1239A
:100B90000097A105B10521F081E090E0A0E0B0E070
:100BA0009A01AB01282B392B4A2B5B2BDA01C901A7
:100BB0008F779070A070B07080349105A105B10559
:100BC00039F427FF09C0205C3F4F4F4F5F4F04C0EF
:100BD000215C3F4F4F4F5F4FE0E0F0E02030A0E05E
:100BE0003A07A0E04A07A0E45A0710F0E1E0F0E07D
:100BF00079018A0127C06038710564F5FB01E1586D
:100C0000FF4FD801C7018F779070A070B07080340B
:100C10009105A105B10539F4E7FE0DC080E490E02F
:100C2000A0E0B0E004C08FE390E0A0E0B0E0E80E08
:100C3000F91E0A1F1B1F17FF05C016950795F7948D
:100C4000E794319687E016950795F794E7948A958F
:100C5000D1F705C0EE24FF248701EFEFF0E06E2FFF
:100C6000679566276795902F9F77D794DD24D79453
:100C70008E2F8695492F462B582F5D29B701CA0123
:100C80001F910F91FF90EF90DF900895FC01DB0121
:100C9000408151812281622F6F7770E0221F2227CD
:100CA000221F9381892F880F822B282F30E0991FD4
:100CB0009927991F11969C93119721153105A9F534
:100CC000411551056105710511F482E037C082E8D4
:100CD0009FEF13969C938E9312979A01AB0167E056
:100CE000220F331F441F551F6A95D1F783E08C9361
:100CF0000DC0220F331F441F551F12968D919C91DA
:100D00001397019713969C938E931297203080E04F
:100D1000380780E0480780E4580758F314962D936D
:100D20003D934D935C93179708952F3F310579F4C8
:100D3000411551056105710519F484E08C930895FE
:100D400064FF03C081E08C9312C01C9210C02F5727
:100D5000304013963C932E93129783E08C9387E058
:100D6000440F551F661F771F8A95D1F7706414963C
:100D70004D935D936D937C93179708951F93DC01BA
:100D8000FB019C91923008F447C08081823008F4C6
:100D900043C0943051F411961C91843099F58181AF
:100DA000682F70E0611B71093FC0843021F09230E0
:100DB00031F48230B9F18181882389F12DC01196F7
:100DC0001C9111978230F1F081811817D9F4129695
:100DD0002D913C911397828193818217930794F010
:100DE00028173907BCF014968D919D910D90BC91F8
:100DF000A02D2481358146815781281739074A075C
:100E00005B0718F4112341F00AC082179307A40767
:100E1000B50740F4112319F061E070E005C06FEFF1
:100E20007FEF02C060E070E0CB011F910895DF9377
:100E3000CF93CDB7DEB7A3E5B0E0E3E5F0E0808186
:100E40008F7B8C93A3E5B0E0E3E5F0E08081877FC2
:100E50008C93A3E5B0E0E3E5F0E080818F7E8C9396
:100E6000A3E5B0E0E3E5F0E080818F7D8C93A3E51E
:100E7000B0E0E3E5F0E0808181608C93A3E5B0E031
:100E8000E3E5F0E0808182608C93A3E5B0E0E3E5E8
:100E9000F0E080818B7F8C93A9E5B0E0E9E5F0E09C
:100EA000808182608C93CF91DF910895DF93CF93FF
:100EB00000D000D0CDB7DEB78A8319828A81282F6F
:100EC00030E03C832B838B819C818130910589F0BC
:100ED0002B813C8122303105A1F08B819C810097D0
:100EE000C1F4A9E5B0E0E9E5F0E0808181608C9390
:100EF00012C0A9E5B0E0E9E5F0E0808184608C9360
:100F00000AC0A9E5B0E0E9E5F0E0808180648C9357
:100F100002C081E0898389810F900F900F900F901C
:100F2000CF91DF910895DF93CF9300D000D0CDB75C
:100F3000DEB78A8319828A81282F30E03C832B8395
:100F40008B819C818130910589F02B813C812230FD
:100F50003105A1F08B819C810097C1F4A9E5B0E037
:100F6000E9E5F0E080818E7F8C9312C0A9E5B0E0C6
:100F7000E9E5F0E080818B7F8C930AC0A9E5B0E0C1
:100F8000E9E5F0E080818F7B8C9302C081E089836A
:100F900089810F900F900F900F90CF91DF9108955E
:100FA000DF93CF9300D00F92CDB7DEB79B838A83B8
:100FB00019828A819B81009739F08A819B81909365
:100FC00083018093820102C082E0898389810F902E
:100FD0000F900F90CF91DF910895DF93CF930F92F1
:100FE000CDB7DEB78983E2E5F0E0898180830F9099
:100FF000CF91DF9108951F920F920FB60F92112497
:101000002F933F934F935F936F937F938F939F9310
:10101000AF93BF93EF93FF93DF93CF93CDB7DEB73B
:101020008091820190918301009729F0E0918201E3
:10103000F09183010995CF91DF91FF91EF91BF91DD
:10104000AF919F918F917F916F915F914F913F9160
:101050002F910F900FBE0F901F9018951F920F9217
:101060000FB60F9211242F933F934F935F936F937B
:101070007F938F939F93AF93BF93EF93FF93DF93F0
:10108000CF93CDB7DEB78091820190918301009715
:1010900029F0E0918201F09183010995CF91DF91D0
:1010A000FF91EF91BF91AF919F918F917F916F9140
:1010B0005F914F913F912F910F900FBE0F901F9016
:1010C0001895DF93CF93CDB7DEB7A5E4B0E0E5E4A4
:1010D000F0E0808180648C93A5E4B0E0E5E4F0E08A
:1010E000808188608C93A5E4B0E0E5E4F0E0808145
:1010F00080618C93A5E4B0E0E5E4F0E0808180625B
:101100008C93A5E4B0E0E5E4F0E0808181608C930D
:10111000CF91DF9108950F931F93DF93CF930F9299
:10112000CDB7DEB7898303E410E08981882F90E092
:10113000A0E0B0E0BC01CD010E94A904DC01CB011C
:10114000BC01CD0120E030E048EC52E40E941903DC
:10115000DC01CB01BC01CD0120E030E04FE753ECD6
:101160000E941F02DC01CB01BC01CD0120E030E078
:101170004FE753E40E94F201DC01CB01BC01CD0139
:101180000E944900DC01CB01F80180830F90CF91D0
:10119000DF911F910F910895DF93CF93CDB7DEB705
:1011A000A5E5B0E0E5E5F0E0808182608C93A5E5FF
:1011B000B0E0E5E5F0E0808181608C93A5E5B0E0EA
:1011C000E5E5F0E0808188608C93A5E5B0E0E5E599
:1011D000F0E0808184608C93A4E5B0E0E4E5F0E089
:1011E000808180648C93ABE5B0E0EBE5F0E080813A
:1011F0008F7B8C93ABE5B0E0EBE5F0E080818F77FF
:101200008C93ABE5B0E0EBE5F0E080818F7D8C93D3
:10121000CF91DF910895DF93CF93CDB7DEB72997B4
:101220000FB6F894DEBF0FBECDBF8A836B831982E1
:101230008A81882309F05FC08B81282F30E03987AD
:101240002887888599858230910529F128853985F7
:101250002330310534F4888599858130910561F01A
:1012600047C0288539852330310521F18885998546
:101270008430910571F13CC0A5E5B0E0E5E5F0E012
:1012800080818D7F8C93A5E5B0E0E5E5F0E080817D
:101290008E7F8C93BBC0A5E5B0E0E5E5F0E08081F2
:1012A0008D7F8C93A5E5B0E0E5E5F0E0808181607D
:1012B0008C93ACC0A5E5B0E0E5E5F0E0808182600C
:1012C0008C93A5E5B0E0E5E5F0E080818E7F8C931E
:1012D0009DC0A5E5B0E0E5E5F0E0808182608C93FB
:1012E000A5E5B0E0E5E5F0E0808181608C938EC0FB
:1012F00081E089838BC08A81813009F05FC08B8156
:10130000282F30E03F832E838E819F81823091058C
:1013100029F12E813F812330310534F48E819F8164
:101320008130910561F047C02E813F812330310526
:1013300021F18E819F818430910571F13CC0A5E53A
:10134000B0E0E5E5F0E08081877F8C93A5E5B0E033
:10135000E5E5F0E080818B7F8C9358C0A5E5B0E097
:10136000E5E5F0E08081877F8C93A5E5B0E0E5E5D9
:10137000F0E0808184608C9349C0A5E5B0E0E5E5AC
:10138000F0E0808188608C93A5E5B0E0E5E5F0E0D1
:1013900080818B7F8C933AC0A5E5B0E0E5E5F0E075
:1013A000808188608C93A5E5B0E0E5E5F0E0808180
:1013B00084608C932BC081E0898328C08A8182302D
:1013C00019F58B81282F30E03D832C838C819D8102
:1013D0008330910531F02C813D812430310549F075
:1013E00010C0A4E5B0E0E4E5F0E080818F7B8C9351
:1013F0000DC0A4E5B0E0E4E5F0E0808180648C936A
:1014000005C081E0898302C081E0898389812996B2
:101410000FB6F894DEBF0FBECDBFCF91DF91089518
:10142000DF93CF9300D000D0CDB7DEB78A83198287
:101430008A81282F30E03C832B838B819C818130F3
:10144000910589F02B813C8122303105A1F08B81FF
:101450009C810097C1F4ABE5B0E0EBE5F0E0808162
:1014600080648C9312C0ABE5B0E0EBE5F0E08081E6
:1014700080688C930AC0ABE5B0E0EBE5F0E08081DA
:1014800080628C9302C081E0898389810F900F90E4
:101490000F900F90CF91DF910895DF93CF9300D0FD
:1014A00000D0CDB7DEB78A8319828A81282F30E039
:1014B0003C832B838B819C818130910589F02B812A
:1014C0003C8122303105A1F08B819C810097C1F4D1
:1014D000ABE5B0E0EBE5F0E080818F7B8C9312C050
:1014E000ABE5B0E0EBE5F0E080818F778C930AC04C
:1014F000ABE5B0E0EBE5F0E080818F7D8C9302C03E
:1015000081E0898389810F900F900F900F90CF9188
:10151000DF910895DF93CF9300D000D0CDB7DEB731
:101520008A837C836B8319828B819C81009769F00D
:101530008A81882F90E0880F991FFC01EC57FE4F9D
:101540008B819C819183808302C082E08983898121
:101550000F900F900F900F90CF91DF9108951F92F1
:101560000F920FB60F9211242F933F934F935F93D7
:101570006F937F938F939F93AF93BF93EF93FF935B
:10158000DF93CF93CDB7DEB7809184019091850131
:10159000009729F0E0918401F09185010995CF91A0
:1015A000DF91FF91EF91BF91AF919F918F917F91CB
:1015B0006F915F914F913F912F910F900FBE0F90C0
:1015C0001F9018951F920F920FB60F9211242F9310
:1015D0003F934F935F936F937F938F939F93AF93BB
:1015E000BF93EF93FF93DF93CF93CDB7DEB7809197
:1015F000860190918701009729F0E0918601F09192
:1016000087010995CF91DF91FF91EF91BF91AF9144
:101610009F918F917F916F915F914F913F912F910A
:101620000F900FBE0F901F9018951F920F920FB63C
:101630000F9211242F933F934F935F936F937F9358
:101640008F939F93AF93BF93EF93FF93DF93CF93CA
:10165000CDB7DEB78091880190918901009729F07C
:10166000E0918801F09189010995CF91DF91FF9177
:10167000EF91BF91AF919F918F917F916F915F910A
:101680004F913F912F910F900FBE0F901F90189583
:10169000DF93CF93CDB7DEB77894CF91DF910895E4
:1016A000DF93CF93CDB7DEB7F894CF91DF91089554
:1016B000DF93CF9300D000D000D0CDB7DEB78A83C0
:1016C0006B834C8319828B81883008F0B1C08C8188
:1016D000823008F0ADC08A81282F30E03E832D8310
:1016E0006D817E8161307105D1F18D819E81823065
:1016F000910534F42D813E812115310571F095C09D
:101700006D817E816230710509F44BC08D819E81AF
:101710008330910509F467C088C0ABE3B0E0EBE328
:10172000F0E08081482F8B81282F30E081E090E02D
:1017300002C0880F991F2A95E2F7809548238C8173
:10174000282F30E08B81882F90E0B90102C0660F0E
:10175000771F8A95E2F7CB01842B8C936BC0A8E3AB
:10176000B0E0E8E3F0E08081482F8B81282F30E063
:1017700081E090E002C0880F991F2A95E2F78095DA
:1017800048238C81282F30E08B81882F90E0B9018D
:1017900002C0660F771F8A95E2F7CB01842B8C93EA
:1017A00049C0A5E3B0E0E5E3F0E08081482F8B81FC
:1017B000282F30E081E090E002C0880F991F2A9521
:1017C000E2F7809548238C81282F30E08B81882F89
:1017D00090E0B90102C0660F771F8A95E2F7CB014E
:1017E000842B8C9327C0A2E3B0E0E2E3F0E0808199
:1017F000482F8B81282F30E081E090E002C0880FD5
:10180000991F2A95E2F7809548238C81282F30E094
:101810008B81882F90E0B90102C0660F771F8A95EF
:10182000E2F7CB01842B8C9305C081E0898302C051
:1018300081E08983898126960FB6F894DEBF0FBEBA
:10184000CDBFCF91DF910895DF93CF9300D000D02B
:101850000F92CDB7DEB78A836B8319828A81282FD6
:1018600030E03D832C838C819D8181309105D1F0C6
:101870002C813D81223031052CF48C819D81009793
:1018800061F01FC02C813D812230310581F08C81B7
:101890009D818330910581F014C0EBE3F0E08B81F2
:1018A000808311C0E8E3F0E08B8180830CC0E5E326
:1018B000F0E08B81808307C0E2E3F0E08B818083DE
:1018C00002C081E0898389810F900F900F900F9063
:1018D0000F90CF91DF910895DF93CF93CDB7DEB70F
:1018E00027970FB6F894DEBF0FBECDBF8A836B83F8
:1018F0005D834C8319828B81883008F079C08C819C
:101900009D81009709F474C08A81282F30E03F83BD
:101910002E834E815F814130510559F18E819F8127
:101920008230910534F42E813F812115310569F013
:101930005CC04E815F814230510579F18E819F817B
:101940008330910509F43DC050C0E9E3F0E08081A7
:10195000282F30E08B81882F90E0A90102C0559597
:1019600047958A95E2F7CA018170EC81FD818083F9
:1019700048C0E6E3F0E08081282F30E08B81882F9B
:1019800090E0A90102C0559547958A95E2F7CA01F2
:101990008170EC81FD81808334C0E3E3F0E08081DD
:1019A000282F30E08B81882F90E0A90102C0559547
:1019B00047958A95E2F7CA018170EC81FD818083A9
:1019C00020C0E0E3F0E08081282F30E08B81882F79
:1019D00090E0A90102C0559547958A95E2F7CA01A2
:1019E0008170EC81FD8180830CC081E0898309C016
:1019F0008C819D81009719F482E0898302C081E087
:101A00008983898127960FB6F894DEBF0FBECDBFBC
:101A1000CF91DF910895DF93CF9300D000D00F9244
:101A2000CDB7DEB78A836B8319828B81883008F04B
:101A300072C08A81282F30E03D832C838C819D8168
:101A40008130910549F12C813D81223031052CF402
:101A50008C819D81009761F05BC02C813D8122309B
:101A6000310571F18C819D8183309105E9F150C080
:101A7000ABE3B0E0EBE3F0E08081482F8B81282FCF
:101A800030E081E090E0022E02C0880F991F0A9496
:101A9000E2F784278C9341C0A8E3B0E0E8E3F0E0EC
:101AA0008081482F8B81282F30E081E090E0022E4A
:101AB00002C0880F991F0A94E2F784278C932DC0E7
:101AC000A5E3B0E0E5E3F0E08081482F8B81282F8B
:101AD00030E081E090E0022E02C0880F991F0A9446
:101AE000E2F784278C9319C0A2E3B0E0E2E3F0E0D0
:101AF0008081482F8B81282F30E081E090E0022EFA
:101B000002C0880F991F0A94E2F784278C9305C0BE
:101B100081E0898302C081E0898389810F900F90E1
:101B20000F900F900F90CF91DF910895DF93CF9397
:101B3000CDB7DEB7EAE3F0E08FEF8083E7E3F0E0D4
:101B40008FEF8083E4E3F0E08FEF8083E1E3F0E068
:101B50008FEB8083EBE3F0E01082E8E3F0E01082AB
:101B6000E5E3F0E01082E2E3F0E01082CF91DF9154
:101B70000895DF93CF93CDB7DEB70E94480B81E085
:101B80000E945607EFE4F0E01082CF91DF910895B4
:101B9000DF93CF93CDB7DEB7AEE4B0E0EEE4F0E094
:101BA000808180648C93AEE4B0E0EEE4F0E080816C
:101BB00081608C93CF91DF910895DF93CF93CDB760
:101BC000DEB7AEE4B0E0EEE4F0E080818F7B8C9392
:101BD000AEE4B0E0EEE4F0E0808181608C93CF91E0
:101BE000DF910895DF93CF93CDB7DEB7AEE4B0E0D9
:101BF000EEE4F0E080818E7F8C93CF91DF910895A9
:101C0000DF93CF93CDB7DEB7A8E5B0E0E8E5F0E02D
:101C1000808180628C93A8E5B0E0E8E5F0E0808107
:101C200084608C93CF91DF910895DF93CF9300D0A0
:101C300000D0CDB7DEB7E6E4F0E08081882F90E0F9
:101C4000A0E0B0E089839A83AB83BC8380918A0152
:101C500090918B01CC01A0E0B0E02FEF3FEF40E08E
:101C600050E0BC01CD010E94DE17DC01CB019C01DC
:101C7000AD0189819A81AB81BC81820F931FA41F22
:101C8000B51F89839A83AB83BC8369817A818B81F9
:101C90009C810E94A904DC01CB01BC01CD0129E299
:101CA0003CEF46E654E40E941903DC01CB01BC0181
:101CB000CD010E944900DC01CB01BC01CD010F9098
:101CC0000F900F900F90CF91DF910895DF93CF93F6
:101CD000CDB7DEB768970FB6F894DEBF0FBECDBFA5
:101CE00082E060E041E00E94580B80E090E0A0E2DA
:101CF000B1E48D8B9E8BAF8BB88F6D897E898F8978
:101D0000988D2BEA3AEA4AEA50E40E941F02DC016D
:101D1000CB01898B9A8BAB8BBC8B69897A898B8938
:101D20009C8920E030E040E85FE30E94250488239E
:101D30001CF481E0888B91C069897A898B899C89A0
:101D400020E030E04FE753E40E94C50318160CF082
:101D50007BC06D897E898F89988D20E030E04AE7CD
:101D600054E40E941903DC01CB018C879D87AE8768
:101D7000BF876C857D858E859F8520E030E04AE7B2
:101D800055E40E941F02DC01CB0188879987AA874E
:101D9000BB87688579858A859B8520E030E040E8AF
:101DA0005FE30E94250488232CF481E090E09F8368
:101DB0008E833FC0688579858A859B8520E03FEFCB
:101DC0004FE757E40E94C50318164CF56C857D85D6
:101DD0008E859F8520E030E040E251E40E941F02A2
:101DE000DC01CB01BC01CD010E944900DC01CB012B
:101DF0009F838E830FC080E991E09D838C838C81CB
:101E00009D810197F1F79D838C838E819F8101973E
:101E10009F838E838E819F81009769F724C0688598
:101E200079858A859B850E944900DC01CB019F83CF
:101E30008E838E819F819B838A838A819B81019778
:101E4000F1F79B838A830FC069897A898B899C8982
:101E50000E944900DC01CB01888B888989838981B4
:101E60008A95F1F7898382E060E040E00E94580B98
:101E7000EDE4F0E01082ECE4F0E010820E94C80D86
:101E80000E94000EE8E5F0E08081882F90E08072EB
:101E900090700097B9F3EDE4F0E01082ECE4F0E02C
:101EA00010820E94DD0D0E94000E10928B01109294
:101EB0008A01E8E5F0E08081882F90E080729070E0
:101EC0000097B9F30E94150EDC01CB01BC01CD01D6
:101ED00068960FB6F894DEBF0FBECDBFCF91DF91ED
:101EE00008951F920F920FB60F9211248F939F9314
:101EF000DF93CF93CDB7DEB780918A0190918B01AC
:101F0000019690938B0180938A01CF91DF919F91ED
:101F10008F910F900FBE0F901F901895DF93CF9366
:101F2000CDB7DEB76D970FB6F894DEBF0FBECDBF4D
:101F30008D8F8D8D882311F481E08D8F8D8D882F6D
:101F400090E0A0E0B0E0BC01CD010E94A904DC015A
:101F5000CB01BC01CD0120E030E44CE754E40E9409
:101F60001F02DC01CB01BC01CD0120E030E048E4E0
:101F700052E40E941903DC01CB01898F9A8FAB8F49
:101F8000BC8F83E061E041E00E94580B898D9A8DFF
:101F9000AB8DBC8D8D8B9E8BAF8BB88F6D897E8901
:101FA0008F89988D2BEA3AEA4AEA50E40E941F0290
:101FB000DC01CB01898B9A8BAB8BBC8B69897A89CD
:101FC0008B899C8920E030E040E85FE30E94250493
:101FD00088231CF481E0888B91C069897A898B8978
:101FE0009C8920E030E04FE753E40E94C5031816B7
:101FF0000CF07BC06D897E898F89988D20E030E060
:102000004AE754E40E941903DC01CB018C879D87C9
:10201000AE87BF876C857D858E859F8520E030E00B
:102020004AE755E40E941F02DC01CB0188879987AB
:10203000AA87BB87688579858A859B8520E030E003
:1020400040E85FE30E94250488232CF481E090E0BF
:102050009F838E833FC0688579858A859B8520E034
:102060003FEF4FE757E40E94C50318164CF56C8507
:102070007D858E859F8520E030E040E251E40E941E
:102080001F02DC01CB01BC01CD010E944900DC0133
:10209000CB019F838E830FC080E991E09D838C8369
:1020A0008C819D810197F1F79D838C838E819F8127
:1020B00001979F838E838E819F81009769F724C04B
:1020C000688579858A859B850E944900DC01CB0162
:1020D0009F838E838E819F819B838A838A819B814C
:1020E0000197F1F79B838A830FC069897A898B896D
:1020F0009C890E944900DC01CB01888B88898983F7
:1021000089818A95F1F7898383E061E040E00E944C
:10211000580B6D960FB6F894DEBF0FBECDBFCF91B2
:10212000DF910895DF93CF9300D000D000D0CDB7DA
:10213000DEB79B838A836C8319828C81282F30E0E1
:102140003E832D838D819E81009731F02D813E81CC
:1021500021303105C9F030C08A818F70282F8A81E3
:1021600082958F70982F822F692F40E00E94580B24
:102170008A818F70282F8B818F70982F822F692FE3
:1021800041E00E94580B1AC08A818F70282F8B81E2
:102190008F70982F822F692F40E00E94580B8A8100
:1021A0008F70282F8A8182958F70982F822F692FA8
:1021B00041E00E94580B02C081E089838981269604
:1021C0000FB6F894DEBF0FBECDBFCF91DF9108955B
:1021D000DF93CF9300D0CDB7DEB79A83898389810F
:1021E0008F70282F898182958F70982F822F692F69
:1021F00040E00E94580B89818F70282F8A818F7050
:10220000982F822F692F40E00E94580B0F900F905B
:10221000CF91DF910895DF93CF930F92CDB7DEB7C3
:10222000898389810E948B080F90CF91DF91089557
:10223000DF93CF930F92CDB7DEB789838981982F33
:10224000917080E064E0492F0E94580B8981869547
:10225000982F917080E065E0492F0E94580B89818A
:1022600086958695982F917080E066E0492F0E94B0
:10227000580B8981869586958695982F917080E078
:1022800067E0492F0E94580B0F90CF91DF9108957E
:10229000DF93CF93CDB7DEB72E970FB6F894DEBF9E
:1022A0000FBECDBF81E063E041E00E94580B80E0AB
:1022B00090E0A0E0B0E48B879C87AD87BE876B85FC
:1022C0007C858D859E8520E030E04AE755E40E94BC
:1022D0001F02DC01CB018F839887A987BA876F81A2
:1022E000788589859A8520E030E040E85FE30E94A8
:1022F000250488232CF481E090E09E838D833FC0E9
:102300006F81788589859A8520E03FEF4FE757E414
:102310000E94C50318164CF56B857C858D859E85BE
:1023200020E030E040E251E40E941F02DC01CB01DA
:10233000BC01CD010E944900DC01CB019E838D834D
:102340000FC080E991E09C838B838B819C810197F6
:10235000F1F79C838B838D819E8101979E838D8372
:102360008D819E81009769F714C06F81788589857A
:102370009A850E944900DC01CB019E838D838D816B
:102380009E819A83898389819A810197F1F79A8343
:10239000898381E063E040E00E94580B2E960FB6DF
:1023A000F894DEBF0FBECDBFCF91DF910895DF93CC
:1023B000CF930F92CDB7DEB7898381E061E040E033
:1023C0000E94580B81E062E040E00E94580B898136
:1023D00082958F700E9418110E94481189810E9475
:1023E00018110E9448110F90CF91DF910895DF934B
:1023F000CF930F92CDB7DEB7898381E061E041E0F2
:102400000E94580B81E062E040E00E94580B8981F5
:1024100082958F700E9418110E94481189810E9434
:1024200018110E9448110F90CF91DF910895DF930A
:10243000CF93CDB7DEB72E970FB6F894DEBF0FBEA1
:10244000CDBF80E090E0A0E2B2E48B879C87AD87AF
:10245000BE876B857C858D859E8520E030E04AE7D0
:1024600055E40E941F02DC01CB018F839887A98766
:10247000BA876F81788589859A8520E030E040E8C9
:102480005FE30E94250488232CF481E090E09E8382
:102490008D833FC06F81788589859A8520E03FEFE5
:1024A0004FE757E40E94C50318164CF56B857C85F1
:1024B0008D859E8520E030E040E251E40E941F02BD
:1024C000DC01CB01BC01CD010E944900DC01CB0144
:1024D0009E838D830FC080E991E09C838B838B81E9
:1024E0009C810197F1F79C838B838D819E8101975D
:1024F0009E838D838D819E81009769F714C06F81C3
:10250000788589859A850E944900DC01CB019E83EC
:102510008D838D819E819A83898389819A81019798
:10252000F1F79A83898382E00E9418110E94481172
:1025300082E00E9418110E94481188E00E94181140
:102540000E9448118CE00E94D71181E00E94D711AF
:102550002E960FB6F894DEBF0FBECDBFCF91DF91A0
:102560000895DF93CF9300D000D00F92CDB7DEB7A0
:102570009D838C831B828C819D81009719F482E05E
:102580008B831CC01A8219820FC029813A818C81E9
:102590009D81FC01E20FF31F80810E94F711898168
:1025A0009A8101969A83898329813A818C819D81C0
:1025B000FC01E20FF31F8081882339F78B810F9094
:1025C0000F900F900F900F90CF91DF910895DF93B0
:1025D000CF93CDB7DEB72A970FB6F894DEBF0FBE04
:1025E000CDBF6F83788789879A871E828F81988570
:1025F000A985BA850097A105B10521F480E30E9461
:10260000F7117CC01A821B821C821D82198243C072
:102610008A819B81AC81BD812AE030E040E050E0BE
:10262000BC01CD010E94DE17DC01CB018A839B83B4
:10263000AC83BD838F819885A985BA852AE030E077
:1026400040E050E0BC01CD010E94FD17DC01CB0150
:102650009C01AD018A819B81AC81BD81820F931F5A
:10266000A41FB51F8A839B83AC83BD838F8198850C
:10267000A985BA852AE030E040E050E0BC01CD01F8
:102680000E94FD17DA01C9018F839887A987BA874D
:1026900089818F5F89838F819885A985BA85009705
:1026A000A105B10509F0B4CF26C08A819B81AC8118
:1026B000BD812AE030E040E050E0BC01CD010E9445
:1026C000FD17DC01CB01805D0E94F7118A819B819F
:1026D000AC81BD812AE030E040E050E0BC01CD019A
:1026E0000E94FD17DA01C9018A839B83AC83BD83F5
:1026F00089818150898389818823B9F68E812A96C0
:102700000FB6F894DEBF0FBECDBFCF91DF91089515
:10271000DF93CF9300D00F92CDB7DEB78A836B8360
:1027200019828B81882319F48A81898306C08B8161
:10273000813019F48A81805C8983898180688983EA
:1027400089810E94D7110F900F900F90CF91DF9148
:102750000895DF93CF93CDB7DEB728970FB6F894DF
:10276000DEBF0FBECDBF9D838C836E834F832887D2
:102770001B828C819D81009759F18E81882F90E07A
:10278000880F991F880F991F880F991F8983898146
:102790008064898389810E94D7111A820EC08A8140
:1027A000282F30E08C819D81FC01E20FF31F808196
:1027B0000E94F7118A818F5F8A838A81883078F33B
:1027C0008F8168850E9488138E810E94F71102C054
:1027D00082E08B838B8128960FB6F894DEBF0FBE04
:1027E000CDBFCF91DF910895DF93CF93CDB7DEB703
:1027F00081E00E94D711CF91DF910895DF93CF93AD
:10280000CDB7DEB762970FB6F894DEBF0FBECDBF6F
:1028100080E28F8780917E01882331F080918C0146
:102820008E5C80938C0105C080918C0182538093D3
:102830008C0180918C01282F30E03A8B298B89897B
:102840009A898233910561F029893A8924363105C4
:1028500051F089899A89009749F48CE48F8708C0E0
:1028600083E48F8705C082E58F8702C080E28F876F
:1028700080918C010E948E0F80918C01823020F01B
:1028800080918C01843650F080917E01188A8823D3
:1028900011F491E0988B288920937E0180E090E0EC
:1028A000A8E4B3E48B879C87AD87BE876B857C8566
:1028B0008D859E8520E030E04AE755E40E941F02A6
:1028C000DC01CB018F839887A987BA876F817885D0
:1028D00089859A8520E030E040E85FE30E94250486
:1028E00088232CF481E090E09E838D833FC06F812C
:1028F000788589859A8520E03FEF4FE757E40E946D
:10290000C50318164CF56B857C858D859E8520E06A
:1029100030E040E251E40E941F02DC01CB01BC0127
:10292000CD010E944900DC01CB019E838D830FC045
:1029300080E991E09C838B838B819C810197F1F7E7
:102940009C838B838D819E8101979E838D838D8156
:102950009E81009769F714C06F81788589859A8573
:102960000E944900DC01CB019E838D838D819E8175
:102970009A83898389819A810197F1F79A83898360
:102980008F8562960FB6F894DEBF0FBECDBFCF9194
:10299000DF910895DF93CF93CDB7DEB780918F019C
:1029A000807F826080938F0180918F018F70806320
:1029B00080938F0180919001807F8460809390014B
:1029C00080918D01807F826080938D0180918D0147
:1029D0008F70806580938D0180918E01807F8660ED
:1029E00080938E01CF91DF910895DF93CF93CDB780
:1029F000DEB7E1970FB6F894DEBF0FBECDBF6BA771
:102A00007CA78DA79EA74FA78BA59CA5ADA5BEA50E
:102A100081359105A105B10508F09BC184E60E94AE
:102A20000B118FA5282F30E039AB28AB88A999A9C5
:102A30008C34910569F028A939A92235310509F4AA
:102A400087C088A999A98334910509F401C192C16D
:102A500080918F019091900161E00E94921080918D
:102A60008D0190918E010E94E81080E090E0AAE72D
:102A7000B4E48FA398A7A9A7BAA76FA178A589A541
:102A80009AA520E030E04AE755E40E941F02DC01ED
:102A9000CB018BA39CA3ADA3BEA36BA17CA18DA1F5
:102AA0009EA120E030E040E85FE30E9425048823F7
:102AB0002CF481E090E09AA389A33FC06BA17CA194
:102AC0008DA19EA120E03FEF4FE757E40E94C50390
:102AD00018164CF56FA178A589A59AA520E030E0DD
:102AE00040E251E40E941F02DC01CB01BC01CD0198
:102AF0000E944900DC01CB019AA389A30FC080E9A1
:102B000091E098A38F8F8F8D98A10197F1F798A3EB
:102B10008F8F89A19AA101979AA389A389A19AA1CC
:102B2000009769F727C16BA17CA18DA19EA10E948E
:102B30004900DC01CB019AA389A389A19AA19E8FA8
:102B40008D8F8D8D9E8D0197F1F79E8F8D8F12C188
:102B500080918D0190918E0161E00E949210809190
:102B60008F01909190010E94E81080E090E0AAE728
:102B7000B4E4898F9A8FAB8FBC8F698D7A8D8B8DE2
:102B80009C8D20E030E04AE755E40E941F02DC0102
:102B9000CB018D8B9E8BAF8BB88F6D897E898F8992
:102BA000988D20E030E040E85FE30E942504882310
:102BB0002CF481E090E09C8B8B8B3FC06D897E89EB
:102BC0008F89988D20E03FEF4FE757E40E94C503BF
:102BD00018164CF5698D7A8D8B8D9C8D20E030E038
:102BE00040E251E40E941F02DC01CB01BC01CD0197
:102BF0000E944900DC01CB019C8B8B8B0FC080E9CC
:102C000091E09A8B898B89899A890197F1F79A8B40
:102C1000898B8B899C8901979C8B8B8B8B899C8959
:102C2000009769F7A7C06D897E898F89988D0E946A
:102C30004900DC01CB019C8B8B8B8B899C89988B09
:102C40008F878F8598890197F1F7988B8F8792C02E
:102C500080918F019091900161E00E94921080918B
:102C60008D0190918E0160E00E94921080E090E0D2
:102C7000AAE7B4E48B879C87AD87BE876B857C858C
:102C80008D859E8520E030E04AE755E40E941F02D2
:102C9000DC01CB018F839887A987BA876F817885FC
:102CA00089859A8520E030E040E85FE30E942504B2
:102CB00088232CF481E090E09E838D833FC06F8158
:102CC000788589859A8520E03FEF4FE757E40E9499
:102CD000C50318164CF56B857C858D859E8520E097
:102CE00030E040E251E40E941F02DC01CB01BC0154
:102CF000CD010E944900DC01CB019E838D830FC072
:102D000080E991E09C838B838B819C810197F1F713
:102D10009C838B838D819E8101979E838D838D8182
:102D20009E81009769F726C06F81788589859A858D
:102D30000E944900DC01CB019E838D838D819E81A1
:102D40009A83898389819A810197F1F79A8389838C
:102D500011C084E60E940B1180918F019091900127
:102D600060E00E94921080918D0190918E0160E050
:102D70000E949210E1960FB6F894DEBF0FBECDBF51
:102D8000CF91DF910895DF93CF93CDB7DEB727972B
:102D90000FB6F894DEBF0FBECDBF69837A838B83F5
:102DA0009C834D8386E480937F0180E28093800141
:102DB00089819A81AB81BC8181359105A105B105DD
:102DC00048F58D81282F30E03F832E838E819F81AF
:102DD0008C34910559F02E813F812235310569F0FF
:102DE0008E819F818334910579F014C082E48093B1
:102DF0007F0182E5809380010DC082E480937F0192
:102E00008CE48093800106C082E580937F0182E597
:102E100080938001109281018FE791E027960FB691
:102E2000F894DEBF0FBECDBFCF91DF910895DF9341
:102E3000CF93CDB7DEB765970FB6F894DEBF0FBE60
:102E4000CDBF0E94960D0E9417120E94B90D0E94DC
:102E500061080E94CA140E94FE138D8B0E94660EA8
:102E6000DC01CB01898B9A8BAB8BBC8B80E690E02D
:102E70000E94B11289899A89AB89BC89BC01CD01B4
:102E80000E94E71280E061E00E9488138AE690E0E9
:102E90000E94B1128D890E94F71180E790E00E9494
:102EA000B11289899A89AB89BC89BC01CD014D8950
:102EB0000E94C316988B8F878F8598890E94B112C4
:102EC00089899A89AB89BC89BC01CD014D890E9451
:102ED000F51480E090E0AAEFB3E48B879C87AD8780
:102EE000BE876B857C858D859E8520E030E04AE736
:102EF00055E40E941F02DC01CB018F839887A987CC
:102F0000BA876F81788589859A8520E030E040E82E
:102F10005FE30E94250488232CF481E090E09E83E7
:102F20008D833FC06F81788589859A8520E03FEF4A
:102F30004FE757E40E94C50318164CF56B857C8556
:102F40008D859E8520E030E040E251E40E941F0222
:102F5000DC01CB01BC01CD010E944900DC01CB01A9
:102F60009E838D830FC080E991E09C838B838B814E
:102F70009C810197F1F79C838B838D819E810197C2
:102F80009E838D838D819E81009769F714C06F8128
:102F9000788589859A850E944900DC01CB019E8352
:102FA0008D838D819E819A83898389819A810197FE
:102FB000F1F79A8389830E94F4134DCF629FD00169
:102FC000739FF001829FE00DF11D649FE00DF11DE4
:102FD000929FF00D839FF00D749FF00D659FF00D93
:102FE0009927729FB00DE11DF91F639FB00DE11D80
:102FF000F91FBD01CF0111240895A1E21A2EAA1BC9
:10300000BB1BFD010DC0AA1FBB1FEE1FFF1FA21798
:10301000B307E407F50720F0A21BB30BE40BF50B95
:10302000661F771F881F991F1A9469F7609570951E
:10303000809590959B01AC01BD01CF0108952F9221
:103040003F924F925F926F927F928F929F92AF9238
:10305000BF92CF92DF92EF92FF920F931F93CF9385
:10306000DF93CDB7DEB7CA1BDB0B0FB6F894DEBF1C
:103070000FBECDBF09942A88398848885F846E8442
:103080007D848C849B84AA84B984C884DF80EE808C
:10309000FD800C811B81AA81B981CE0FD11D0FB695
:1030A000F894DEBF0FBECDBFED010895F894FFCFB9
:1030B00064697374616E63653A007372766F3A0087
:1030C000206469723A000000000000000000000166
:1030D00002020303030304040404040404040505B6
:1030E000050505050505050505050505050506068E
:1030F0000606060606060606060606060606060670
:10310000060606060606060606060606060607075D
:10311000070707070707070707070707070707073F
:10312000070707070707070707070707070707072F
:10313000070707070707070707070707070707071F
:10314000070707070707070707070707070708080D
:1031500008080808080808080808080808080808EF
:1031600008080808080808080808080808080808DF
:1031700008080808080808080808080808080808CF
:1031800008080808080808080808080808080808BF
:1031900008080808080808080808080808080808AF
:1031A000080808080808080808080808080808089F
:1031B000080808080808080808080808080808088F
:1031C0000808080808080808080808080808014648
:0231D0002000DD
:00000001FF
